:020000040000FA
:0600000051EF01F01200B7
:0A0006000100C0020000000F00001E
:040010000F000000DD
:0C001400060EF66E000EF76E000EF86E81
:100020000F010900F550146F0900F550156F03E139
:10003000146701D03DD00900F5500F6F0900F5504D
:10004000106F0900F550116F09000900F550E96EB5
:100050000900F550EA6E090009000900F550126F19
:100060000900F550136F09000900F6CF16FFF7CF0E
:1000700017FFF8CF18FF0FCFF6FF10CFF7FF11CF04
:10008000F8FF0F01125302E1135307E00900F55086
:10009000EE6E1207F8E21307F9D716CFF6FF17CF67
:1000A000F7FF18CFF8FF0F011407000E155BBFD73D
:0200B00012003C
:0E00B200D9CFE6FFE1CFD9FFE652F90EDF6E9F
:1000C000060EE66E26EC01F0E552DFCFE6FFA0EC6F
:1000D00000F0E55200CFE9FFEA6AE9BEEA68010EE6
:1000E000E9260F0EEA22EF50E66EE66ADBEC00F03E
:1000F000E552E552110EE66E0AEC01F0E552F2A46B
:10010000FED7F2940F010029006F00CFE9FFEA6AE1
:10011000E9BEEA68010EE9260F0EEA22EF50E66E0C
:10012000E66ADBEC00F0E552E5520D0E0F01005DD2
:1001300001E10069E4D7E552E552E7CFD9FF1200AB
:10014000D9CFE6FFDACFE6FFE1CFD9FFE2CFDAFF82
:10015000E652E652E652E652F8CF02F0F6CF03F04E
:100160000C0EBA6E050EF66EF76A300EF86E0800C9
:10017000F550010B03E0010EDB6802D0010EDB6AD3
:10018000010EDB5002E0949201D09396CA94FD0ECA
:10019000DB50CB6ECA8402C0F8FF03C0F6FF040E2A
:1001A000E15C02E2E16AE552E16EE552E5CFDAFF99
:0601B000E7CFD9FF1200A9
:0A01B600D9CFE6FFDACFE6FFE1CF74
:1001C000D9FFE2CFDAFFE652E652FC0EDBCF02F0B7
:1001D000FD0EDBCF03F0060ED89002360336E8049E
:1001E000FBE102C0DEFF03C0DDFF010EDB50BB6E92
:1001F000DF50E840E8403F0B300B026ECF0EBA14E0
:100200000210BA6EE552E552E552E5CFDAFFE7CFCC
:04021000D9FF120000
:0C021400D9CFE6FFDACFE6FFE1CFD9FF3B
:10022000E2CFDAFFFD0EDB507F0BD56ED76AD66AC0
:10023000F294FD0EDBAE02D0F28A01D0F29AD58E96
:0C024000E552E5CFDAFFE7CFD9FF12004E
:04024C00D9CFE6FF21
:10025000DACFE6FFE1CFD9FFE2CFDAFFFD0EDB50C8
:10026000FB0BCA6ECC6A9E92FD0EDBAE02D09D8265
:1002700001D09D92CA84E552E5CFDAFFE7CFD9FFDE
:0202800012006A
:0E028200600EF36E00EE00F00F0E01D81200B9
:10029000EA6002D0EE6AFCD7F350E9601200EE6A21
:0202A000FCD789
:0E02A2001EEE00F02EEE00F0F86A019C0AEC51
:0E02B00000F05FEC01F059EC00F0FBD71200FB
:0202BE0012002C
:0F02C000003F41464B50555A5F64696E73787C1E
:020000040030CA
:0100010008F6
:010003001EDE
:010006008178
:00000001FF
