:020000040000FA
:06000000F8EF00F0120011
:020006000000F8
:08000800D9CFE6FFE1CFD9FFDB
:100010000B0EE126400EDF6EDE52790EDD6E240EF1
:10002000F36E020EF3CFDBFF300EF36E030EF3CF51
:10003000DBFF190EF36E040EF3CFDBFF120EF36E2F
:10004000050EF3CFDBFF020EF36E060EF3CFDBFFE0
:10005000780EF36E070EF3CFDBFF080EDB6A100E8F
:10006000F36E090EF3CFDBFF0A0EDB6A95908C80EE
:100070002FD88C90D9CF00F0DACF01F00A0EDBCF69
:10008000F3FFDB2AF350026E036A02BE03680050DE
:100090000224E96E01500320EA6EEF50E66E1FD88D
:1000A000E5528C80C80EE66ED1EC00F0E5520A0EE7
:1000B000DB500A0802E10A0EDB6ADBD70B0EE15CBB
:1000C00002E2E16AE552E16EE552E7CFD9FF1200A4
:1000D000100E946E400EC76E310EC66E1200D9CF50
:1000E000E6FFE1CFD9FFE652C950DF6E9E96C69E6D
:1000F000FE0EDB50C96E9EA6FED7E552E552E7CF55
:04010000D9FF120011
:0C010400060EF66E000EF76E000EF86E90
:100110000F010900F550056F0900F550066F03E166
:10012000056701D03DD00900F550006F0900F5507A
:10013000016F0900F550026F09000900F550E96EE2
:100140000900F550EA6E090009000900F550036F37
:100150000900F550046F09000900F6CF07FFF7CF3B
:1001600008FFF8CF09FF00CFF6FF01CFF7FF02CF5E
:10017000F8FF0F01035302E1045307E00900F550B3
:10018000EE6E0307F8E20407F9D707CFF6FF08CFB2
:10019000F7FF09CFF8FF0F010507000E065BBFD779
:0201A00012004B
:0E01A200FF0EE350076EEF0E01D0F30EE76E76
:1001B000E72ED8EF00F00C0E066EE76AE72EDEEFB2
:1001C00000F0062EDDEF00F0072ED6EF00F0120053
:1001D000600EF36E00EE00F00F0E01D81200EA6020
:1001E00002D0EE6AFCD7F350E9601200EE6AFCD749
:1001F0001EEE00F02EEE00F0F86A059C82EC00F096
:0C02000006EC01F004EC00F0FBD712004B
:02020C001200DE
:00000001FF
