:020000040000FA
:0600000086EF00F0120083
:020006000000F8
:08000800060EF66E000EF76E05
:10001000000EF86E0F010900F550056F0900F5504C
:10002000066F03E1056701D03DD00900F550006F70
:100030000900F550016F0900F550026F0900090031
:10004000F550E96E0900F550EA6E09000900090053
:10005000F550036F0900F550046F09000900F6CF51
:1000600007FFF7CF08FFF8CF09FF00CFF6FF01CF5A
:10007000F7FF02CFF8FF0F01035302E1045307E03B
:100080000900F550EE6E0307F8E20407F9D707CF31
:10009000F6FF08CFF7FF09CFF8FF0F010507000EA5
:0600A000065BBFD7120051
:0A00A600956A400E8C6E04D80CD849
:1000B0008C6EFDD71200180E946E7E98928A400EB8
:1000C000C76E740EC66E1200D9CFE6FFE1CFD9FF1E
:1000D000E652C950DF6E9E96C96AC7A0FED7C950C6
:0C00E00000D0E552E552E7CFD9FF120036
:0400EC00600EF36E41
:1000F00000EE00F00F0E01D81200EA6002D0EE6AA6
:0C010000FCD7F350E9601200EE6AFCD757
:04010C001EEE00F0F3
:100110002EEE00F0F86A019C04EC00F094EC00F084
:0801200053EC00F0FBD71200C4
:020128001200C3
:00000001FF
