:020000040000FA
:0600000095EF00F0120074
:020006001200E6
:0800080007EF00F01200DACF4F
:10001000E4FFE2CFDAFFE9CFE4FFEACFE4FFE65204
:100020000F010A2B0A51EA6A000FE96E0F0EEA224D
:10003000EF508C6E090E0A5D01E10A69F294D668F0
:10004000E552E5CFEAFFE5CFE9FFE5CFDAFF1100A2
:0E0050009288E00EF26EF80ED56ED6681200A1
:02005E0001009F
:0C00600054010000000F00000B00000025
:04006C005E0EF66EC0
:10007000000EF76E000EF86E0F010900F550106FBC
:100080000900F550116F03E1106701D03DD0090060
:10009000F5500B6F0900F5500C6F0900F5500D6F0E
:1000A00009000900F550E96E0900F550EA6E0900F3
:1000B00009000900F5500E6F0900F5500F6F090097
:1000C0000900F6CF12FFF7CF13FFF8CF14FF0BCFC5
:1000D000F6FF0CCFF7FF0DCFF8FF0F010E5302E133
:1000E0000F5307E00900F550EE6E0E07F8E20F0718
:1000F000F9D712CFF6FF13CFF7FF14CFF8FF0F0198
:0A0100001007000E115BBFD71200BC
:06010A00600EF36E00EE32
:1001100000F00F0E01D81200EA6002D0EE6AFCD7A0
:0A012000F350E9601200EE6AFCD70C
:06012A001EEE00F02EEEB7
:1001300000F0F86A019C36EC00F003EC00F0A3EC50
:0601400000F0FBD71200E5
:0A01460028EC00F0956A00CF8CFF52
:04015000FFD71200C3
:0B0154004079243019120278001000DE
:020000040030CA
:0100010002FC
:010003001EDE
:010005008971
:010006008178
:00000001FF
