:020000040000FA
:0600000018EF01F01200F0
:020006000000F8
:0800080007EF00F01200DACF4F
:10001000E4FFE2CFDAFFE6520F01010E0A6F9E9C69
:08002000E552E5CFDAFF110003
:08002800D9CFE6FFE1CFD9FFBB
:10003000040EE12679D8956AC2820F010A5169E05F
:10004000C450DE6EDD6ADECF10F0DDCF11F010C0DF
:1000500011F0106A10C0DEFF11C0DDFFC350E76E63
:10006000000EDFCF10F0010EDBCF11F0E7501012C1
:1000700010C0DEFF11C0DDFFDECF10F0DDCF11F0CC
:100080000A0E1102F3CF11F01002F3CF10F0F4506A
:1000900011261F0E0B6E0C6A10C006F011C007F07F
:1000A000F2EC00F006C010F007C011F010C0DEFF47
:1000B00011C0DDFFDECF10F0DDCF11F00A0E0B6EA8
:1000C0000C6A10C006F011C007F0F2EC00F002C09C
:1000D00010F003C011F0020E10C0DBFF0A0E106E0C
:1000E000116A10C00BF011C00CF0DECF06F0DDCFAE
:1000F00007F0F2EC00F0030E06C0DBFFDBCFE6FFFB
:10010000020EDB38F00BE552E7108C6E0F010A6B24
:10011000C28293D7040EE15C02E2E16AE552E16E2D
:10012000E552E7CFD9FF12009280010E7E6E7F6A02
:10013000910EC06E100EC16EC26AC2809E9C9D8CD4
:06014000F28CF28E1200A9
:0A014600060EF66E000EF76E000EB6
:10015000F86E0F010900F550056F0900F550066FA4
:1001600003E1056701D03DD00900F550006F09009B
:10017000F550016F0900F550026F09000900F550B4
:10018000E96E0900F550EA6E090009000900F55012
:10019000036F0900F550046F09000900F6CF07FF4F
:1001A000F7CF08FFF8CF09FF00CFF6FF01CFF7FF29
:1001B00002CFF8FF0F01035302E1045307E00900E7
:1001C000F550EE6E0307F8E20407F9D707CFF6FF04
:1001D00008CFF7FF09CFF8FF0F010507000E065BF8
:0401E000BFD7120073
:0C01E400036A026A100EE76ED89006361F
:1001F0000736023603360B50025C0C50035805E3F9
:100200000B50025E0C50035A062AE72EF0D712005C
:10021000600EF36E00EE00F00F0E01D81200EA60DF
:1002200002D0EE6AFCD7F350E9601200EE6AFCD708
:100230001EEE00F02EEE00F0F86A0F9CA3EC00F02A
:0C02400026EC01F014EC00F0FBD71200DB
:02024C0012009E
:020000040030CA
:0100010002FC
:0100020019E4
:010003001EDE
:010005008B6F
:010006008178
:00000001FF
