:020000040000FA
:06000000AAEF09F0120056
:020006000000F8
:08000800020EE66E34D8E55249
:10001000020EE66E8AEC09F0E5520C0EE66E2BD865
:10002000E552040EE66ED3EC09F0E552280EE66EBA
:1000300022D8E552040EE66ED3EC09F0E552060E26
:10004000E66E19D8E552040EE66ED3EC09F0E552DF
:100050001200D9CFE6FFE1CFD9FFE6528A84DF6AEA
:10006000020EDF5C02E2DF2AFBD78A94E552E552FA
:10007000E7CFD9FF1200D9CFE6FFE1CFD9FF8A92AF
:100080008A90FE0EDB380F0BE8B08A86E8A08A96CD
:10009000FE0EDB50E00BE838E840E8B08A88E8A0C4
:1000A0008A98060E146EFE0EDB5014C0E7FFE7526E
:1000B00004E0E8427F0BE706FCE1E8B08A8AE8A0AA
:1000C0008A9AFE0EDB44010BE8B08A8CE8A08A9C79
:1000D000C0DFFE0EDB50E8B08A86E8A08A96FE0EEE
:1000E000DB407F0BE8B08A88E8A08A98FE0EDB40F0
:1000F000E8403F0BE8B08A8AE8A08A9AFE0EDB400F
:10010000E840E8401F0BE8B08A8CE8A08A9CA1DF99
:10011000E552E7CFD9FF1200D9CFE6FFE1CFD9FFF3
:100120008A928A80FE0EDB380F0BE8B08A86E8A040
:100130008A96FE0EDB50E00BE838E840E8B08A888B
:10014000E8A08A98060E146EFE0EDB5014C0E7FF7E
:10015000E75204E0E8427F0BE706FCE1E8B08A8A58
:10016000E8A08A9AFE0EDB44010BE8B08A8CE8A076
:100170008A9C6FDFFE0EDB50E8B08A86E8A08A9684
:10018000FE0EDB407F0BE8B08A88E8A08A98FE0E5E
:10019000DB40E8403F0BE8B08A8AE8A08A9AFE0E6E
:1001A000DB40E840E8401F0BE8B08A8CE8A08A9C5E
:1001B00050DFE552E7CFD9FF1200D9CFE6FFE1CFFC
:1001C000D9FFFD0EDBCFE9FFFE0EDBCFEAFFEF50DC
:1001D00015E0FD0EDBCFE9FFFE0EDBCFEAFFEF50AF
:1001E000E66E9ADFE552FD0EDB2AFE0E01E3DB2A06
:1001F000040EE66ED3EC09F0E552E3D7E552E7CF03
:10020000D9FF1200D9CFE6FFE1CFD9FF020EE126D8
:10021000D950FB0FE96EFF0EDA20EA6E010EEE18E0
:1002200001E1ED5004E0400EDE6EDD6A02D0DE6AD0
:10023000DD6AFD0EDBCF14F0FE0EDBCF15F01406E9
:10024000000E155AD9CFE9FFDACFEAFF1450EE2697
:100250001550ED22DECF14F0DDCF15F0800E141016
:10026000E66E09DFE552040EE66ED3EC09F0E552C6
:10027000020EE15C02E2E16AE552E16EE552E7CF8F
:10028000D9FF1200D9CFE6FFE1CFD9FF040EE12656
:10029000FE0EDB50146E156AE80E0D6E030E0E6E28
:1002A00014C008F015C009F0DFEC07F008C014F026
:1002B00009C015F0030E14C0DBFFFE0EDB50146EF8
:1002C000156AE80E0D6E030E0E6E14C008F015C010
:1002D00009F0DFEC07F004C014F005C015F0640E5F
:1002E0000D6E0E6A14C008F015C009F0DFEC07F0BF
:1002F00008C014F009C015F0020E14C0DBFFFE0E9A
:10030000DB50146E156AE80E0D6E030E0E6E14C0EF
:1003100008F015C009F0DFEC07F004C014F005C0C8
:1003200015F0640E0D6E0E6A14C008F015C009F0C9
:10033000DFEC07F004C014F005C015F00A0E0D6ED6
:100340000E6A14C008F015C009F0DFEC07F008C011
:1003500014F009C015F0010E14C0DBFFFE0EDB50D7
:10036000146E156AE80E0D6E030E0E6E14C008F0C2
:1003700015C009F0DFEC07F004C014F005C015F05B
:10038000640E0D6E0E6A14C008F015C009F0DFECA3
:1003900007F004C014F005C015F00A0E0D6E0E6AC9
:1003A00014C008F015C009F0DFEC07F004C014F029
:1003B00005C015F01450DF6E010EF36E030EDBCF97
:1003C000F4FFF350F45C06E3030EDB50300FE66EEF
:1003D000A3DEE552010EF36E020EDBCFF4FFF35005
:1003E000F45C06E3020EDB50300FE66E95DEE5525C
:1003F000010EDB50300FE66E8FDEE552300EDF244B
:10040000E66E8ADEE552040EE15C02E2E16AE55244
:10041000E16EE552E7CFD9FF1200D9CFE6FFE1CF79
:10042000D9FF0C0EE126D9CFE9FFDACFEAFF2E0E75
:10043000EE6EEE6AFB0EDBCF14F0FC0EDBCF15F098
:10044000FD0EDBCF16F0FE0EDBCF17F00C6A0D6A47
:10045000200E0E6E410E0F6E14C007F015C008F08E
:1004600016C009F017C00AF072EC07F005EC08F0AE
:10047000020E08C0DBFF030E09C0DBFFE80E146E9E
:10048000030E156E020EDBCF08F0030EDBCF09F072
:1004900014C00DF015C00EF074EC09F00A0E08C07F
:1004A000DBFF0B0E09C0DBFF020EDBCF14F0030EE7
:1004B000DBCF15F0E80E0D6E030E0E6E14C008F0C3
:1004C00015C009F074EC09F004C014F005C015F073
:1004D000640E0D6E0E6A14C008F015C009F074ECBD
:1004E00009F008C014F009C015F0080E14C0DBFFB5
:1004F000090E15C0DBFF020EDBCF14F0030EDBCFBD
:1005000015F0E80E0D6E030E0E6E14C008F015C047
:1005100009F074EC09F004C014F005C015F0640E85
:100520000D6E0E6A14C008F015C009F074EC09F0E5
:1005300004C014F005C015F00A0E0D6E0E6A14C04A
:1005400008F015C009F074EC09F008C014F009C0F7
:1005500015F0060E14C0DBFF070E15C0DBFF020E00
:10056000DBCF14F0030EDBCF15F0E80E0D6E030E9B
:100570000E6E14C008F015C009F074EC09F004C048
:1005800014F005C015F0640E0D6E0E6A14C008F06C
:1005900015C009F074EC09F004C014F005C015F0A2
:1005A0000A0E0D6E0E6A14C008F015C009F074EC46
:1005B00009F004C014F005C015F0040E14C0DBFFF0
:1005C000050E15C0DBFF0A0EDBCF14F00B0EDBCFE0
:1005D00015F0300E1424E66E9FDDE552080EDBCFD9
:1005E00014F0090EDBCF15F0300E1424E66E94DD06
:1005F000E552060EDBCF14F0070EDBCF15F0300E00
:100600001424E66E89DDE552D9CFE6FFDACFE6FFA6
:10061000D4DDE552E552040EDBCF14F0050EDBCF3E
:1006200015F0300E1424E66E77DDE5520C0EE15C19
:1006300002E2E16AE552E16EE552E7CFD9FF12002E
:10064000D9CFE6FFE1CFD9FF0B0EE126D9CFE9FFE5
:10065000DACFEAFF530EEE6E540EEE6E410EEE6EE2
:10066000520EEE6E540EEE6E490EEE6E4E0EEE6EA5
:10067000470EEE6EEE6AD950090FE96EDACFEAFF47
:100680002E0EEE6EEE6A800E936E04EC00F09DEC82
:1006900005F0060EE66EE66AE66AE66AA8EC05F084
:1006A000E552E552E552E5520D0EE66E080EE66E95
:1006B0000B0EE66E080EE66EDDEC05F0E552E55237
:1006C000E552E552D9CFE6FFDACFE6FFDDEC00F0E8
:1006D000E552E5520F010A6B070E0A5D12E2D9508E
:1006E000090FE66E000EDA20E66EDDEC00F0E55252
:1006F000E552C80EE66E8AEC09F0E5520F010A2BAE
:10070000EBD7010EE66E3BEC00F0E552010EE66E13
:10071000E66AE66EE66A02EC01F0E552E552E55261
:10072000E5520EEC06F0F3CF14F0F4CF15F014C040
:10073000E6FF15C0E6FF2BD8E552E552020EE66E45
:10074000E66A010EE66EE66A02EC01F0E552E55259
:10075000E552E55253EC06F0F3CF14F0F4CF15F068
:1007600014C0E6FF15C0E6FFAFD8E552E552460ECD
:10077000E66E5DEC09F0E552C9D70B0EE15C02E2D2
:10078000E16AE552E16EE552E7CFD9FF1200D9CF19
:10079000E6FFE1CFD9FF0C0EE126D9CFE9FFDACF92
:1007A000EAFF200EEE6E410EEE6E4D0EEE6EEE6A1C
:1007B000D950040FE96EDACFEAFF200EEE6E500E2C
:1007C000EE6E4D0EEE6EEE6AD950080FE96EDACF7E
:1007D000EAFF3A0EEE6EEE6AD9500A0FE96EDACFF2
:1007E000EAFF480EEE6EEE6A020EE76EFD0EDBCFFC
:1007F000E9FFFE0EDBCFEAFFE750E926000EEA2212
:10080000EF50E66E42EC01F0E552D950080FE66E6B
:10081000000EDA20E66EDDEC00F0E552E552010E46
:10082000E76EFD0EDBCFE9FFFE0EDBCFEAFFE75000
:10083000E926000EEA22EF50E66E42EC01F0E552A6
:10084000D950080FE66E000EDA20E66EDDEC00F0FF
:10085000E552E552FD0EDBCFE9FFFE0EDBCFEAFFEE
:10086000EF50E66E42EC01F0E5520F010F51010A24
:1008700016E0010A0BE0D9500A0FE66E000EDA20EE
:10088000E66EDDEC00F0E552E55214D0D9CFE6FF7C
:10089000DACFE6FFDDEC00F0E552E5520BD0D9509F
:1008A000040FE66E000EDA20E66EDDEC00F0E55295
:1008B000E55200D00C0EE15C02E2E16AE552E16E25
:1008C000E552E7CFD9FF1200D9CFE6FFE1CFD9FF3C
:1008D000250EE126D9CFE9FFDACFEAFF3A0EEE6E18
:1008E000EE6AD950020FE96EDACFEAFF4D0EEE6ED6
:1008F0004F0EEE6E4E0EEE6EEE6AD950060FE96E9A
:10090000DACFEAFF540EEE6E550EEE6E450EEE6E29
:10091000EE6AD9500A0FE96EDACFEAFF570EEE6E93
:10092000450EEE6E440EEE6EEE6AD9500E0FE96E75
:10093000DACFEAFF540EEE6E480EEE6E550EEE6EF6
:10094000530EEE6EEE6AD950130FE96EDACFEAFF5E
:10095000460EEE6E520EEE6E490EEE6EEE6AD950F7
:10096000170FE96EDACFEAFF530EEE6E410EEE6E10
:10097000540EEE6EEE6AD9501B0FE96EDACFEAFF25
:10098000530EEE6E550EEE6E4E0EEE6EEE6AD950B2
:100990001F0FE96EDACFEAFF450EEE6E520EEE6ED5
:1009A000EE6E4F0EEE6E520EEE6EEE6AFD0EDBCF69
:1009B000E9FFFE0EDBCFEAFFEF50080A59E00F0A0D
:1009C0004CE0010A3FE0030A32E0010A25E0070A91
:1009D00018E0010A0BE0D9501F0FE66E000EDA2076
:1009E000E66EDDEC00F0E552E5524DD0D950020F35
:1009F000E66E000EDA20E66EDDEC00F0E552E55220
:100A000042D0D950060FE66E000EDA20E66EDDEC1D
:100A100000F0E552E55237D0D9500A0FE66E000ECD
:100A2000DA20E66EDDEC00F0E552E5522CD0D9502C
:100A30000E0FE66E000EDA20E66EDDEC00F0E552F9
:100A4000E55221D0D950130FE66E000EDA20E66E83
:100A5000DDEC00F0E552E55216D0D950170FE66EE6
:100A6000000EDA20E66EDDEC00F0E552E5520BD028
:100A7000D9501B0FE66E000EDA20E66EDDEC00F0BA
:100A8000E552E55200D0D9CFE6FFDACFE6FFDDEC44
:100A900000F0E552E552010EE76EFD0EDBCFE9FFF7
:100AA000FE0EDBCFEAFFE750E926000EEA22EF5008
:100AB000E66E42EC01F0E552D9CFE6FFDACFE6FF71
:100AC000DDEC00F0E552E552020EE76EFD0EDBCFE5
:100AD000E9FFFE0EDBCFEAFFE750E926000EEA222F
:100AE000EF50E66E42EC01F0E552D9CFE6FFDACFE7
:100AF000E6FFDDEC00F0E552E552140EE66E42EC46
:100B000001F0E552030EE76EFD0EDBCFE9FFFE0EAE
:100B1000DBCFEAFFE750E926000EEA22EF50E66E4F
:100B200042EC01F0E552250EE15C02E2E16AE55299
:0A0B3000E16EE552E7CFD9FF120095
:060B3A00090EC86E800EDA
:100B4000E66E080EE66E42EC09F0E552E552120040
:100B5000D9CFE6FFE1CFD9FFFD0EDBCFE6FFDAD834
:100B6000E5520F010C6FFC0EDBCFE6FFD3D8E55248
:100B70000F010D6FFB0EDBCFE6FFCCD8E5520F0166
:100B80000E6FFE0EDB50010A05E0010A01E005D000
:100B90000E8D03D0600E0E1300D0030EE66E0C0E09
:100BA000E66E0F0EE66EE66A04D9E552E552E552AE
:100BB000E552E552E7CFD9FF1200D9CFE6FFE1CFEA
:100BC000D9FFFE0EDBCFE6FFA5D8E5520F010C6F73
:100BD000FD0EDBCFE6FF9ED8E5520F010D6FFC0E38
:100BE000DBCFE6FF97D8E5520F010E6FFB0EDBCF90
:100BF000E6FF90D8E5520F010F6F040EE66E0C0E63
:100C0000E66E0F0EE66E030EE66ED3D8E552E552A1
:100C1000E552E552E552E7CFD9FF1200030EE66E2A
:100C20000C0EE66E0F0EE66EE66AFDD8E552E55252
:100C3000E552E5520CCF0BFF0BCFE6FF9AD8E552F9
:100C40000F010C6F0DCF0BFF0BCFE6FF92D8E552D3
:100C50000F010D6F0EAD11D00EAB03D0010E0F6F53
:100C600001D00F6B0ECF0BFF1F0E0F010B15E66EA1
:100C700080D8E5520F010E6F0CD0020E0F6F0ECF11
:100C80000BFF3F0E0F010B15E66E73D8E5520F01F7
:100C90000E6F0C0E146E0F0E156E14C0F3FF15C000
:100CA000F4FF00D01200040EE66E0C0EE66E0F0E7E
:100CB000E66E030EE66EB7D8E552E552E552E55210
:100CC0000CCF0BFF0BCFE6FF54D8E5520F010C6F92
:100CD0000DCF0BFF0BCFE6FF4CD8E5520F010D6F88
:100CE0000ECF0BFF0BCFE6FF44D8E5520F010E6F7E
:100CF0000FCF0BFF0BCFE6FF3CD8E5520F010F6F74
:100D00000C0E146E0F0E156E14C0F3FF15C0F4FF19
:100D100000D01200D9CFE6FFE1CFD9FF020EE126C5
:100D20000A0E146E14C00EF0FE0EDBCF09F0B8EC04
:100D300009F00950100D010EF3CFDBFF0A0E146EFF
:100D400014C00EF0FE0EDBCF09F0B8EC09F0055030
:100D5000DF6E010EDB50DF10146E020EE15C03E269
:100D600000D0E16AE552E16E1450E552E7CFD9FFB9
:100D70001200D9CFE6FFE1CFD9FF020EE126FE0E29
:100D8000DB500F0BDF6EFE0EDB380F0B0A0D010E72
:100D9000F3CFDBFFDB50DF24146E020EE15C03E2D5
:100DA00000D0E16AE552E16E1450E552E7CFD9FF79
:100DB0001200D9CFE6FFE1CFD9FFC580C5B0FED77D
:100DC000DEEC09F0D00EE66E09EC09F0E552DEEC3F
:100DD00009F0FE0EDBCFE6FF09EC09F0E5520F014A
:100DE0000A6BFB0EDB500A5D17E2DEEC09F00F0127
:100DF0000A51E76EFC0EDBCFE9FFFD0EDBCFEAFF09
:100E0000E750E926000EEA22EF50E66E09EC09F001
:100E1000E5520F010A2BE5D7C584C5B4FED7E552CC
:100E2000E7CFD9FF1200D9CFE6FFE1CFD9FFC580C8
:100E3000C5B0FED7DEEC09F0D00EE66E09EC09F085
:100E4000E552DEEC09F0FE0EDBCFE6FF09EC09F01F
:100E5000E552DEEC09F0C582C5B2FED7DEEC09F042
:100E6000D10EE66E09EC09F0E552DEEC09F0C6ECB5
:100E700009F0E66EFC0EDBCFE9FFFD0EDBCFEAFFEB
:100E8000E552E750EF6E0F01010E0A6FFB0EDB50CB
:100E90000A5D1BE2DEEC09F0C59AC588C5B8FED72D
:100EA000C6EC09F0E66E0F010A51E76EFC0EDBCFCF
:100EB000E9FFFD0EDBCFEAFFE750E926000EEA224C
:100EC000E552E750EF6E0A2BE1D7C58AC588C5B851
:100ED000FED7DEEC09F0C584C5B4FED7E552E7CFF6
:040EE000D9FF120024
:0C0EE400016A8CEC08F0A4EC08F001B6E8
:100EF00034EF08F001A205D001B834EF08F03BEF61
:100F000008F001AA05D001B034EF08F03BEF08F07B
:100F100001B002D001A802D047EF08F0056A0F50D7
:100F20000A24046EE86A05227E0E045EE86A055A09
:100F3000126A136A026A036A0E500902F4CF03F0C0
:100F4000F3CF02F00D500902F3501326F4500222A1
:100F5000000E03220E500802F3501326F450022212
:100F6000000E03220C500902F3501226F4501322F3
:100F7000000E022203220D500802F3501226F450F4
:100F80001322000E022203220E500702F3501226F3
:100F9000F4501322000E022203220C500802F450D7
:100FA0001226000E1322022203220D500702F450D3
:100FB0001226000E13220222032250EF08F0006ACC
:100FC0000EAEE8EF07F00D6C0E1EE86A0E22001E52
:100FD00009AEF0EF07F0086C091EE86A0922001E4E
:100FE00074EC09F009BE00EF08F000AE000C086CCC
:100FF000091EE86A0922046C051EE86A0522000C35
:1010000000BEF7EF07F00188FF0C016A8CEC08F0D6
:1010100001B60FEF08F001A20ED001B405D07F0E8B
:10102000096EFF0E086E1FD0800E096E086A1BD075
:10103000096A086A18D001B0FBD78F0E0A60EDD795
:101040007E0E0A64F5D78E0E0A5C05E0D890093250
:1010500008320A2AF8D701A406D0086C091EE86AEB
:10106000092209AEE5D712007F0E0A6EFF0E096E47
:10107000086E076E12007F0E01BEFF0E0A6E02D0D0
:101080007F0E0A6E800E096E086A076AF3D701AEFA
:1010900004D0800E0A6E096AF7D70A6A096AF4D783
:1010A0000350021013101210F8E005BEF0D703BE73
:1010B0000CD004500510EBE0D890123613360236EF
:1010C00003360406D8A00506F2D70550D4E104285B
:1010D000D2E012AE11D07F0E121402E113A00CD098
:1010E000132AE86A0222032207E3D880033202327D
:1010F0001332042A0428BFE00450C9E013C007F0EB
:1011000002C008F00334096E04300A6E09320A9EE8
:1011100001BE0A8E3AEF08F009360A3602E301846E
:10112000017E06E101800A6A096A086A076A1200FC
:101130000A2803E0D88009321200D890093202E16F
:1011400001821200018612000E360F3602E3018C76
:10115000017E06E101880F6A0E6A0D6A0C6A1200B0
:101160000F2803E0D8800E321200D8900E32EAE148
:04117000018A1200DE
:0C117400060EF66E000EF76E000EF86E10
:101180000F010900F550056F0900F550066F03E1E6
:10119000056701D03DD00900F550006F0900F550FA
:1011A000016F0900F550026F09000900F550E96E62
:1011B0000900F550EA6E090009000900F550036FB7
:1011C0000900F550046F09000900F6CF07FFF7CFBB
:1011D00008FFF8CF09FF00CFF6FF01CFF7FF02CFDE
:1011E000F8FF0F01035302E1045307E00900F55033
:1011F000EE6E0307F8E20407F9D707CFF6FF08CF32
:10120000F7FF09CFF8FF0F010507000E065BBFD7F8
:021210001200CA
:0E121200D9CFE6FFDACFE6FFE1CFD9FFE2CF7A
:10122000DAFFFD0EDB50C96EC6AE02D0FF0E24D031
:101230000F0EC61408080FE00F0EC6140B080BE0C3
:10124000C6889EA6FED7C750040B03E1C750010B0A
:1012500010E0000E11D00F0EC614080804E00F0EA7
:10126000C6140B0809E1C7B0FED7DEEC09F0C5AC27
:1012700002D0FE0E01D0000EE552E5CFDAFFE7CF37
:04128000D9FF120080
:0C128400D9CFE6FFDACFE6FFE1CFD9FFBB
:10129000E2CFDAFF3F0EC716C66AC56AFD0EDB5005
:1012A000C612FC0EDB50C71294869488C68AE5529B
:0A12B000E5CFDAFFE7CFD9FF120007
:0612BA00FF0EE350196E67
:1012C000EF0E01D0F30EE76EE72E64EF09F00C0E7F
:1012D000186EE76AE72E6AEF09F0182E69EF09F039
:0812E000192E62EF09F0120063
:0812E800056A046A100EE76EAE
:1012F000D89008360936043605360D50045C0E5079
:10130000055805E30D50045E0E50055A082AE72ED5
:04131000F0D7120000
:0C131400FF0EE350196E480E01D04C0E85
:10132000E76EE72EFED7E76AE72EFED7192EF7D72E
:0413300000001200A7
:0C133400600EF36E00EE00F00F0E01D80A
:101340001200EA6002D0EE6AFCD7F350E9601200A6
:04135000EE6AFCD76E
:0C1354001EEE00F02EEE00F0F86A019C86
:10136000BAEC08F0E5EC09F020EC03F0FBD7120032
:10137000056A080EE76ED890093605360E50055CF2
:0C13800002E3056E092AE72EF7D71200E1
:04138C000F0EC61466
:10139000080804E00F0EC6140B0801E1C586C7A0BB
:0613A000FED7C950120047
:0A13A600FF0EE350E84E12000000B5
:0C13B00000D000D000D0E82EFAD71200C8
:0413BC001F0EC51427
:0A13C000FDE1C750040BFAE1120032
:0213CA0012000F
:020000040030CA
:0100010002FC
:0100020019E4
:010003001EDE
:010005008B6F
:010006008178
:00000001FF
