:020000040000fa
:080000000002040000000000f2
:020000040000fa
:100400004f8020000e7f22000e01880000000000b7
:100410000c000700e0482000010020000f0007004a
:10042000000020000000e000020032000000020096
:100430000000000056030200000000000040da0047
:100440000000fe00a00820000000e00002003200d2
:10045000002020009001880000000600a102880012
:10046000800078000000eb001a003700e2804000b6
:1004700054a0b4009101ba00e280400054a0b4003e
:100480009102ba00e280400054a0b4000002eb00e8
:10049000472bde00f507b200a6018800602ce100c2
:1004a00008003a000049eb000201e80002003900b0
:1004b0003420ec0002f0a0008301e900f9ff3e00c7
:1004c000040037006128e100010032000082eb00e7
:1004d000040007001101ba000200e000e3ff3a0047
:1004e0000000060004d0a300e20f49001c00390000
:1004f000810278003549ba000201e80002003900a3
:100500003420ec0002f0a0008301e9000f0032006b
:100510002549ba000201e800020039003420ec004d
:1005200002f0a0008301e900080032000400e000ae
:100530000600320015c9ba000201e80002003900c5
:100540003420ec0002f0a0008301e9008180e80083
:1005500054a0b4000300e000e2ff3a0000000600ef
:100560009102ba00055978008301e900f7ff3200d3
:10057000c82ade00055978008301e900f3ff320044
:100580000400e000f1ff320011d9ba00eeff37009d
:080590000040da000000fe004b
:020000040000fa
:020000040002f8
:04aff400ffff00005b
:020000040000fa
:020000040002f8
:04aff8002ef800002f
:020000040000fa
:020000040002f8
:04affc00d93f000039
:020000040000fa
:10000800c8020000c8020000c8020000c8020000c0
:10001800c8020000c8020000c8020000c8020000b0
:10002800c8020000c8020000c8020000c8020000a0
:10003800c8020000c8020000c8020000c802000090
:10004800c8020000c8020000c8020000c802000080
:10005800c8020000c8020000c8020000c802000070
:10006800c8020000c8020000c8020000c802000060
:10007800c8020000c8020000c8020000c802000050
:10008800c8020000c8020000c8020000c802000040
:10009800c8020000c8020000f4030000c802000003
:1000a800c8020000c8020000c8020000c802000020
:1000b800c8020000c8020000c8020000c802000010
:1000c800c8020000c8020000c8020000c802000000
:1000d800c8020000c8020000c8020000c8020000f0
:1000e800c8020000c8020000c8020000c8020000e0
:1000f800c8020000c8020000c8020000c8020000d0
:10010800c8020000c8020000c8020000c8020000bf
:10011800c8020000c8020000c8020000c8020000af
:10012800c8020000c8020000c8020000c80200009f
:10013800c8020000c8020000c8020000c80200008f
:10014800c8020000c8020000c8020000c80200007f
:10015800c8020000c8020000c8020000c80200006f
:10016800c8020000c8020000c8020000c80200005f
:10017800c8020000c8020000c8020000c80200004f
:10018800c8020000c8020000c8020000c80200003f
:10019800c8020000c8020000c8020000c80200002f
:1001a800c8020000c8020000c8020000c80200001f
:1001b800c8020000c8020000c8020000c80200000f
:1001c800c8020000c8020000c8020000c8020000ff
:1001d800c8020000c8020000c8020000c8020000ef
:1001e800c8020000c8020000c8020000c8020000df
:0801f800c8020000c80200006b
:020000040000fa
:10020800c8020000c8020000c8020000c8020000be
:10021800c8020000c8020000c8020000c8020000ae
:10022800c8020000c8020000c8020000c80200009e
:10023800c8020000c8020000c8020000c80200008e
:10024800c8020000c8020000c8020000c80200007e
:10025800c8020000c8020000c8020000c80200006e
:10026800c8020000c8020000c8020000c80200005e
:10027800c8020000c8020000c8020000c80200004e
:10028800c8020000c8020000c8020000c80200003e
:10029800c8020000c8020000f4030000c802000001
:1002a800c8020000c8020000c8020000c80200001e
:1002b800c8020000c8020000c8020000c80200000e
:1002c800c8020000c8020000c8020000c8020000fe
:1002d800c8020000c8020000c8020000c8020000ee
:1002e800c8020000c8020000c8020000c8020000de
:1002f800c8020000c8020000c8020000c8020000ce
:10030800c8020000c8020000c8020000c8020000bd
:10031800c8020000c8020000c8020000c8020000ad
:10032800c8020000c8020000c8020000c80200009d
:10033800c8020000c8020000c8020000c80200008d
:10034800c8020000c8020000c8020000c80200007d
:10035800c8020000c8020000c8020000c80200006d
:10036800c8020000c8020000c8020000c80200005d
:10037800c8020000c8020000c8020000c80200004d
:10038800c8020000c8020000c8020000c80200003d
:10039800c8020000c8020000c8020000c80200002d
:1003a800c8020000c8020000c8020000c80200001d
:1003b800c8020000c8020000c8020000c80200000d
:1003c800c8020000c8020000c8020000c8020000fd
:1003d800c8020000c8020000c8020000c8020000ed
:1003e800c8020000c8020000c8020000c8020000dd
:0803f800c8020000c802000069
:020000040000fa
:100598005379000073740000656d00002069000045
:1005a800732000007265000061640000790d00008e
:1005b8000a0000004d790000206e0000616d000007
:1005c8006520000069730000204e00006775000078
:1005d800796500006e20000054690000656e000017
:1005e80020440000617400000d0a0000004900006a
:1005f800206100006d200000737400007564000025
:10060800796900006e670000206900006e20000014
:1006180043540000455300000d0a0000004d00003f
:10062800792000006d6100006a6f000072200000f0
:1006380069730000206500006c65000063740000a9
:10064800726f00006e69000063200000616e000098
:1006580064200000546500006c650000636f0000b2
:100668006d6d0000756e0000696300006174000024
:10067800696f00006e0d00000a0000004e6900005e
:1006880063650000207400006f2000006d650000a5
:1006980065740000207900006f7500000d0a0000e5
:0406a800000000004e
:020000040000fa
:1006ac000200fa0010002200103a88000000eb0053
:1006bc00203a880021742000620420007305200079
:1006cc00824878008348780042c7a900616a2000fc
:1006dc009140780000ccb30000c060008041b300b2
:1006ec00a6e6b700716d20009140780000ccb300f5
:1006fc0000c060005040b300d7e6b7002174200062
:10070c00620420007305200082487800834878003a
:10071c0042c7a8000000eb0030278800e862a9005f
:10072c004c000700c02c280058000700ec62a80001
:10073c000000370000c8bf000004e000fdff3200dd
:10074c0002c8bf000080fb00000f780020032000cf
:10075c009e007800808f500015003200200320008e
:10076c009e007800808f500005003c001003200094
:10077c009e007800808f50000a0032001400370071
:10078c00300320009e007800808f50000b00320058
:10079c00400320009e007800808f50000a00320039
:1007ac000b003700e02d2800380007000800370048
:1007bc00b02f280035000700050037003031280025
:1007cc003200070002003700203428002f000700f9
:1007dc000040eb0000e8b700d6ff3700809fbe005a
:1007ec00821f78003200f800002020009001880061
:1007fc000000fa0087c0a900b011800002e8b70021
:10080c0010c0b30000e8b700ecc2bf000080fb00d2
:10081c004300de006140600000c0ea0061406000ff
:10082c00614060004301dd00c12e20009140780042
:10083c0070cfb30000c0600002407000ece2b70063
:10084c000080fa003200f9004f0178004f00be0022
:10085c00004006000000fa000000eb008011880048
:10086c0032c2bf00f043b20032e2b700c000200039
:10087c00c011880097c0a80031e2a8003342a8003c
:10088c0087c0a9000080fa00000006000600fa00ec
:10089c0010079800020037001e4078001200070075
:1008ac001e00900010407800004f78001e40780029
:1008bc00404798004e4090000004e00002003200d7
:1008cc0010c0b300404798004e4090009e0090002e
:1008dc008100e800110798000004e000eeff3a00e8
:1008ec000080fa00000006000200fa00004f7800b9
:1008fc0033c2bf00614060000004e000fcff320026
:10090c001e80fb00a01188000080fa000000060089
:020000040000fa
:10091c00000800000200000082000000000000003f
:10092c00020800000200000080000000000000002f
:00000001FF
