:020000040000FA
:06000000B4EF04F0120051
:020006001200E6
:0800080007EF00F01200DACF4F
:10001000E4FFE2CFDAFFE9CFE4FFEACFE4FFE65204
:1000200000C1E9FFEA6AE9BEEA68F10EE926010EBD
:10003000EA22AECFEFFF9EA8FED700C1E9FFEA6A31
:10004000E9BEEA68F10EE926010EEA22EF50AD6E34
:1000500000C1E9FFEA6AE9BEEA68F10EE926010E8D
:10006000EA22EF500D0802E0000E01D0010E186EDA
:10007000000E0101E76E0019E8AE02D0003503D092
:10008000E750D880005502E3000E01D0010E18148D
:1000900003E0010E016F12D00D0E0101F15D02E0CF
:1000A000000E01D0010E186E0101005102E0000E99
:1000B00001D0010E181401E001D0002B9E9AE552E8
:0E00C000E5CFEAFFE5CFE9FFE5CFDAFF11005B
:0200CE0001002F
:0C00D0008409000000010000E7000000AF
:0400DC00190EAF6EDC
:1000E000AC84B896948CAB8EAC98B898AC8AAD6A58
:1000F0001200190EAF6EAC84B896948EAB8EAC988D
:10010000D08E9D8A9F8AF28EAB881200D9CFE6FFEF
:10011000E1CFD9FF9EA8FED7FD0EDBCFE9FFFE0E93
:10012000DBCFEAFFEF50AD6EFD0EDBCFE9FFDB2A40
:10013000FE0EDBCFEAFF01E3DB2AEF50EBE1E552F5
:10014000E7CFD9FF1200D9CFE6FFE1CFD9FF9468FE
:10015000110EB96EFE0EDB50CB6E0C0EBD6E0F0E87
:10016000BA6EE552E7CFD9FF1200D9CFE6FFE1CF53
:10017000D9FF020EE126FD0EDBCF14F0FE0EDBCF21
:1001800015F0060ED89014361536E804FBE114C0BD
:10019000DEFF15C0DDFF010EDB50BE6EDF50E84014
:1001A000E8403F0B300B146ECF0EBD141410BD6E23
:1001B000020EE15C02E2E16AE552E16EE552E7CF50
:1001C000D9FF1200D9CFE6FFE1CFD9FF020EE12619
:1001D000FD0EDBCF14F0FE0EDBCF15F0060ED8902F
:1001E00014361536E804FBE114C0DEFF15C0DDFF50
:1001F000010EDB50BB6EDF50E840E8403F0B300B98
:10020000146ECF0EBA141410BA6E020EE15C02E244
:10021000E16AE552E16EE552E7CFD9FF12009E9206
:10022000020ECA6ECA841200D9CFE6FFE1CFD9FF11
:10023000020EE1260101005D1FE1010EE76EFD0ED9
:10024000DBCFE9FFFE0EDBCFEAFFE750E926000E29
:10025000EA22EF50D00FDF6EFD0EDBCFE9FFFE0E7E
:10026000DBCFEAFFEF502D0805E1FF0EDF02F35070
:1002700043D042D0DF5040D0010EE76EFD0EDBCF01
:10028000E9FFFE0EDBCFEAFFE750E926000EEA2287
:10029000EF50D00FDF6E020EE76EFD0EDBCFE9FFF1
:1002A000FE0EDBCFEAFFE750E926000EEA22EF5010
:1002B000D00FE76E010EE7CFDBFFFD0EDBCFE9FFCE
:1002C000FE0EDBCFEAFFEF502D080DE1010EDBCF74
:1002D000E6FF0A0EDF02F350FF0DF350E552D8801F
:1002E000E7540AD009D0010EDBCFE6FF0A0EDF0289
:1002F000F350E552E72400D0146E020EE15C02E2F6
:10030000E16AE552E16E1450E552E7CFD9FF1200E1
:10031000D9CFE6FFE1CFD9FF050EE1260D0EDF6E46
:10032000FE0EDB50E76E010EE7CFDBFF3E0EF36EF5
:10033000020EF3CFDBFF3E0EF36E030EF3CFDBFFB7
:10034000040EDB6AD9CFE6FFDACFE6FFDFDEE55247
:10035000E5520101015101E1FCD7030EE76E0019DE
:10036000E8AE02D0003503D0E750D880005502E354
:10037000000E01D0010E146E020EE76E0019E8AEF9
:1003800002D0E73402D0E750005D02E3000E01D056
:10039000010E14100CE07E0EE66E010EE66EB6DE67
:1003A000E552E5520101006B016BCCD7BCD02B0E9E
:1003B0000101F15D02E0000E01D0010E146E2D0E60
:1003C000F15D02E0000E01D0010E141001E1A0D099
:1003D000F251390802E3000E01D0010E156E300E05
:1003E000F25D02E3000E01D0010E1510146E020E34
:1003F0000101005D02E0000E01D0010E14140CE0BA
:100400007E0EE66E010EE66E81DEE552E5520101DA
:10041000006B016B97D77BD00101F351390802E3E0
:10042000000E01D0010E176E300EF35D02E3000ED8
:1004300001D0010E166EF251390802E3000E01D010
:10044000010E156E300EF25D02E3000E01D0010EBA
:1004500015101610146E030E0101005D02E0000E6F
:1004600001D0010E141417100CE07E0EE66E010E82
:10047000E66E4CDEE552E5520101006B016B62D77E
:1004800046D0F10EE66E010EE66ECEDEE552E55286
:10049000E76E040EE7CFDBFFDBCF16F0A60EE76EAC
:1004A0001618E8AE02D0E73402D0E750165C02E33B
:1004B000000E01D0010E156E040EDBCF14F05A0EA3
:1004C000E76E1418E8AE02D0143403D0E750D88099
:1004D000145402E3000E01D0010E15100EE0040EBC
:1004E000DB6A7E0EE66E010EE66E10DEE552E55228
:1004F0000101006B016B26D70AD00101006B016B73
:10050000040EDB50146E050EE15C10E20DD00BD032
:100510007E0EE66E010EE66EF9DDE552E552010152
:10052000006B016B0FD70ED7E16AE552E16E1450F4
:10053000E552E7CFD9FF1200D9CFE6FFE1CFD9FFCF
:10054000060EE126FE0EDBCF14F0156A14BE156808
:100550000E0E1426010E1522190E1502F3CF15F0FA
:100560001402F3CF14F0F450152614C0DEFF15C0AA
:10057000DDFF480E146E156A14C00BF015C00CF0A8
:10058000DECF06F0DDCF07F08EEC04F075EC03F063
:10059000020E05C0DBFF030E06C0DBFF040E07C022
:1005A000DBFF050E08C0DBFF020EDBCF05F0030EFC
:1005B000DBCF06F0040EDBCF07F0050EDBCF08F033
:1005C0008AEC03F006C014F007C015F014C0F3FF66
:1005D00015C0F4FF060EE15C03E200D0E16AE552CB
:1005E000E16EE552E7CFD9FF1200D9CFE6FFE1CFA8
:1005F000D9FF060EE12672DD7CDDF90EE66EA3DD85
:10060000E5525E0EE66EE66AB0DDE552E5525E0E3C
:10061000E66EE66AD7DDE552E55201DE9EA2FED720
:10062000F90E946E940EE66E010EE66E6FDDE552E5
:10063000E5520D0EAD6E020EE66E010EE66E66DD43
:10064000E552E552780EE66E63DEE552DF6E790E16
:10065000E66E5EDEE552E76E010EE7CFDBFFDFCF31
:10066000E6FF6ADFE552020EF3CFDBFF030EF4CFA5
:10067000DBFF010EDBCFE6FF5FDFE552040EF3CFB9
:10068000DBFF050EF4CFDBFF020EDBCFE6FF030E30
:10069000DBCFE6FF6ADDE552E552040EDBCFE6FF75
:1006A000050EDBCFE6FF8EDDE552E552580EE66E15
:1006B000010EE66E2BDDE552E5520D0EAD6E9EA8E5
:1006C000FED70D0EAD6E6C0EE66E010EE66E1EDDF3
:1006D000E552E552B7D7060EE15C02E2E16AE55267
:0A06E000E16EE552E7CFD9FF1200EA
:0606EA000F9E08D00F9ED8
:1006F00007AE05D0066C071EE86A07220F8E07C0FA
:1007000001F006C000F0136A126A8E0E026E036AD0
:10071000D5EF03F00F6A11EC04F00FB694EF03F07D
:100720000FA20ED00FB405D07F0E076EFF0E066E1F
:100730001FD0800E076E066A1BD0076A066A18D0A3
:100740000FB0FBD78F0E0860EDD77E0E0864F5D78B
:100750008E0E085C05E0D89007320632082AF8D7DA
:100760000FA406D0066C071EE86A072207AEE5D77D
:1007700012007F0E086EFF0E076E066E056E1200E9
:100780007F0E0FBEFF0E086E02D07F0E086E800E29
:10079000076E066A056AF3D70FAE04D0800E086EA6
:1007A000076AF7D7086A076AF4D7015000101310D8
:1007B0001210F8E003BEF0D701BE0CD002500310B7
:1007C000EBE0D89012361336003601360206D8A078
:1007D0000306F2D70350D4E10228D2E012AE11D0C2
:1007E0007F0E121402E113A00CD0132AE86A002233
:1007F000012207E3D880013200321332022A022894
:10080000BFE00250C9E013C005F000C006F001349B
:10081000076E0230086E0732089E0FBE088EBFEFCB
:1008200003F00736083602E30F840F7E06E10F80DF
:10083000086A076A066A056A1200082803E0D88079
:1008400007321200D890073202E10F8212000F86A1
:1008500012000C360D3602E30F8C0F7E06E10F8876
:100860000D6A0C6A0B6A0A6A12000D2803E0D88030
:0E0870000C321200D8900C32EAE10F8A12000E
:02087E00CE0E9C
:10088000F66E000EF76E000EF86E01010900F550CD
:10089000EC6F0900F550ED6F03E1EC6701D03DD03E
:1008A0000900F550E76F0900F550E86F0900F550B1
:1008B000E96F09000900F550E96E0900F550EA6E8C
:1008C000090009000900F550EA6F0900F550EB6FC7
:1008D00009000900F6CFEEF1F7CFEFF1F8CFF0F114
:1008E000E7C1F6FFE8C1F7FFE9C1F8FF0101EA53EC
:1008F00002E1EB5307E00900F550EE6EEA07F8E27B
:10090000EB07F9D7EEC1F6FFEFC1F7FFF0C1F8FF33
:0C0910000101EC07000EED5BBFD71200E8
:04091C00036A026AFE
:10092000100EE76ED89006360736023603360B50A7
:10093000025C0C50035805E30B50025E0C50035A46
:08094000062AE72EF0D7120091
:08094800600EF36E00EE00F0FA
:100950000F0E01D81200EA6002D0EE6AFCD7F35005
:08096000E9601200EE6AFCD709
:080968001EEE00F02EEE00F07F
:10097000F86A0F9C3FEC04F003EC00F0F5EC02F099
:04098000FBD712008F
:0C098400000053595354454D20495320A6
:1009900052454144592120506C656173652067655B
:1009A000742076616C756573206265747765656E19
:1009B000202D393020616E64202B3930206465672A
:1009C00072656520666F7220636F6E74726F6C6CF7
:1009D000696E6720736572766F7321005365727656
:1009E0006F73206861766520726F7461746564004E
:1009F0005374617274206E65772070726F636573D3
:100A000073004572726F72212047657420626163C2
:100A10006B2076616C756500546869732070726F25
:100A20006772616D206973207772697474656E20D6
:100A30006279204E677579656E205469656E204431
:100A40006174202D204B53544E202D204454565475
:100A5000202D204B35342E204861766520796F7526
:0B0A600020656E6A6F79206974210028
:020000040030CA
:0100010008F6
:010003001EDE
:010006008178
:00000001FF
