:020000040000FA
:060000009BEF00F012006E
:020006001200E6
:0800080007EF00F01200DACF4F
:10001000E4FFE2CFDAFFE9CFE4FFEACFE4FFE65204
:1000200081B806D00F010A2B0A0E0A5D01E10A6BA6
:1000300081BE07D00F010A07FF0E0A5D02E1090E1B
:100040000A6FF2900ACFE9FFEA6AE9BEEA68000E99
:10005000E9260F0EEA22EF508B6EE552E5CFEAFF5C
:0A006000E5CFE9FFE5CFDAFF11005C
:06006A0001006A01000024
:08007000000F00000B0000006E
:080078006A0EF66E000EF76E31
:10008000000EF86E0F010900F550106F0900F550D1
:10009000116F03E1106701D03DD00900F5500B6FDF
:1000A0000900F5500C6F0900F5500D6F09000900AB
:1000B000F550E96E0900F550EA6E090009000900E3
:1000C000F5500E6F0900F5500F6F09000900F6CFCB
:1000D00012FFF7CF13FFF8CF14FF0BCFF6FF0CCFB3
:1000E000F7FF0DCFF8FF0F010E5302E10F5307E0AA
:1000F0000900F550EE6E0E07F8E20F07F9D712CFA0
:10010000F6FF13CFF7FF14CFF8FF0F011007000E13
:06011000115BBFD71200D5
:0A011600600EF36E00EE00F00F0E15
:1001200001D81200EA6002D0EE6AFCD7F350E96011
:060130001200EE6AFCD78C
:0A0136001EEE00F02EEE00F0F86A55
:10014000019C3CEC00F003EC00F0A9EC00F0FBD7C4
:0201500012009B
:0E01520005D8946A00CF8BFFFFD71200936888
:0A016000880EF26E900E7D6E120004
:06016A0040792430191257
:05017000027800100000
:020000040030CA
:0100010002FC
:010003001EDE
:010005008971
:010006008178
:00000001FF
