:020000040000FA
:060000005DEF02F01200AA
:020006000000F8
:080008000000000000000000F0
:1000100000000000000000000000000000000000E0
:1000200012003C0EE66E3DEC02F0E55200D01200EC
:10003000140EE66E3DEC02F0E55200D01200D9CF6E
:10004000E6FFE1CFD9FF1E0EE126D9CFE9FFDACFD7
:10005000EAFF4E0EEE6E470EEE6E550EEE6E590E28
:10006000EE6E450EEE6E4E0EEE6E200EEE6E540EE1
:10007000EE6E490EEE6E450EEE6E4E0EEE6E200EDC
:10008000EE6E440EEE6E410EEE6E540EEE6EEE6AA5
:10009000D950100FE96EDACFEAFF4B0EEE6E530E19
:1000A000EE6E540EEE6E4E0EEE6E2D0EEE6E440E95
:1000B000EE6E540EEE6E560EEE6E540EEE6E2D0E6D
:1000C000EE6E4B0EEE6E350EEE6E340EEE6EEE6A8A
:1000D000280EE66E9EEC00F0E552020EE66E3DEC58
:1000E00002F0E5520C0EE66EB4EC01F0E552D9CF09
:1000F000E6FFDACFE6FFE0EC01F0E552E5520BEC6B
:1001000002F0000901E0FBD7400EE66E5AEC01F068
:10011000E552D950100FE66E000EDA20E66EE0ECE4
:1001200001F0E552E552FFD71E0EE15C02E2E16A02
:0C013000E552E16EE552E7CFD9FF120066
:04013C00D9CFE6FF32
:10014000DACFE6FFE1CFD9FFE2CFDAFFF00E81167A
:100150009316939C939A93988A9C8A9A8A9811EC06
:1001600000F0300EE66EB4EC01F0E552050EE66EDE
:1001700026EC02F0E552300EE66EB4EC01F0E552EA
:10018000010EE66E26EC02F0E552320EE66EB4EC9D
:1001900001F0E5520BEC02F00009FCE10BEC02F07F
:1001A0000009FCE1FD0EDBCFE6FFB4EC01F0E55207
:1001B0000BEC02F00009FCE1080EE66EB4EC01F075
:1001C000E5520BEC02F00009FCE10F0EE66EB4EC18
:1001D00001F0E5520BEC02F00009FCE1010EE66EC5
:1001E000B4EC01F0E5520BEC02F00009FCE1040E66
:1001F000E66EB4EC01F0E5520BEC02F00009FCE114
:10020000800EE66E5AEC01F0E552E552E5CFDAFFDA
:06021000E7CFD9FF120048
:0A021600060EF66E000EF76E000EE5
:10022000F86E0F010900F550056F0900F550066FD3
:1002300003E1056701D03DD00900F550006F0900CA
:10024000F550016F0900F550026F09000900F550E3
:10025000E96E0900F550EA6E090009000900F55041
:10026000036F0900F550046F09000900F6CF07FF7E
:10027000F7CF08FFF8CF09FF00CFF6FF01CFF7FF58
:1002800002CFF8FF0F01035302E1045307E0090016
:10029000F550EE6E0307F8E20407F9D707CFF6FF33
:1002A00008CFF7FF09CFF8FF0F010507000E065B27
:0402B000BFD71200A2
:0C02B400D9CFE6FFDACFE6FFE1CFD9FF9B
:1002C000E2CFDAFFF00E93168116FD0EDB508009A7
:1002D000E8380F0B0F0B81128A9C8A9A04EC00F00D
:1002E0008A8804EC00F08A98F00E8116FD0EDB502F
:1002F0000F0B811204EC00F08A8804EC00F08A985D
:100300000F0E9312E552E5CFDAFFE7CFD9FF1200C7
:10031000D9CFE6FFDACFE6FFE1CFD9FFE2CFDAFFB0
:10032000F00E93168116FD0EDB380F0B0F0B8112AA
:100330008A8A8A9C04EC00F08A8804EC00F08A988F
:10034000F00E8116FD0EDB500F0B811204EC00F055
:100350008A8804EC00F08A980F0E9312E552E5CFDC
:08036000DAFFE7CFD9FF12001C
:08036800D9CFE6FFDACFE6FF72
:10037000E1CFD9FFE2CFDAFFF00E93168116FD0E22
:10038000DB380F0B0F0B81128A9C8A9A04EC00F069
:100390008A8804EC00F08A98F00E8116FD0EDB507E
:1003A0000F0B811204EC00F08A8804EC00F08A98AC
:1003B0000F0E9312E552E5CFDAFFE7CFD9FF120017
:1003C000D9CFE6FFDACFE6FFE1CFD9FFE2CFDAFF00
:1003D000FC0EDBCFE9FFFD0EDBCFEAFFEF5015E0AF
:1003E0000BEC02F00009FCE1FC0EDBCFE9FFFD0E97
:1003F000DBCFEAFFEF50E66E88EC01F0E552FC0E31
:10040000DB2AFD0EE5E3DB2AE3D7E552E5CFDAFF91
:06041000E7CFD9FF120046
:0A0416008A8C8A9A04EC00F08A88B0
:1004200004EC00F081A609D08A9804EC00F08A88D8
:1004300004EC00F08A988A9C010C8A9804EC00F085
:0C0440008A8804EC00F08A988A9C000C6A
:04044C00FF0EE3506C
:10045000036EEF0E01D0F30EE76EE72E2DEF02F0E4
:100460000C0E026EE76AE72E33EF02F0022E32EF37
:0A04700002F0032E2BEF02F0120041
:06047A00FF0EE350036ECB
:10048000480E01D04C0EE76EE72EFED7E76AE72E46
:0A049000FED7032EF7D7000012007C
:06049A00600EF36E00EE9F
:1004A00000F00F0E01D81200EA6002D0EE6AFCD70D
:0A04B000F350E9601200EE6AFCD779
:0604BA001EEE00F02EEE24
:1004C00000F0F86A019C0BEC01F06BEC02F01FEC01
:0604D00000F0FBD7120052
:0204D600120012
:00000001FF
