:020000040000FA
:06000000ABEF00F012005E
:020006000000F8
:020008001200E4
:080018000FEF00F01200D8CF39
:10002000E4FFE0CFE4FFE46EDACFE4FFE2CFDAFFF3
:10003000E6528C1C8C6EF294E552E5CFDAFFE55067
:0A004000E5CFE0FFE5CFD8FF100088
:06004A00060EF66E000E2A
:10005000F76E000EF86E0F010900F550056F0900EC
:10006000F550066F03E1056701D03DD00900F5505A
:10007000006F0900F550016F0900F550026F09008B
:100080000900F550E96E0900F550EA6E0900090013
:100090000900F550036F0900F550046F09000900CD
:1000A000F6CF07FFF7CF08FFF8CF09FF00CFF6FF25
:1000B00001CFF7FF02CFF8FF0F01035302E1045312
:1000C00007E00900F550EE6E0307F8E20407F9D7E0
:1000D00007CFF6FF08CFF7FF09CFF8FF0F0105079D
:0800E000000E065BBFD7120001
:0800E800D9CFE6FFE1CFD9FFFB
:1000F000FE0EDB50D56ED66AD08EF28AF194F28C69
:10010000F28EF294E552E7CFD9FF1200D9CFE6FF85
:10011000E1CFD9FFE652956A550E8C6E570EDF6E11
:10012000DFCFE6FFE1DFE552D58EFFD7E552E5529E
:06013000E7CFD9FF120029
:0A013600600EF36E00EE00F00F0EF5
:1001400001D81200EA6002D0EE6AFCD7F350E960F1
:060150001200EE6AFCD76C
:0A0156001EEE00F02EEE00F0F86A35
:10016000019C25EC00F004EC00F086EC00F0FBD7DD
:0201700012007B
:020000040030CA
:0100010008F6
:0100020007F6
:010003001EDE
:010005008B6F
:010006008178
:010008000FE8
:01000900C036
:01000A000FE6
:01000B00E014
:01000C000FE4
:01000D0040B2
:00000001FF
