:020000040000FA
:0600000044EF03F01200C2
:020006001200E6
:0800080007EF00F01200DACF4F
:10001000E4FFE2CFDAFFE9CFE4FFEACFE4FFE65204
:1000200000C1E9FFEA6AE9BEEA68D60EE926010ED8
:10003000EA22AECFEFFF9EA8FED700C1E9FFEA6A31
:10004000E9BEEA68D60EE926010EEA22EF50AD6E4F
:1000500000C1E9FFEA6AE9BEEA68D60EE926010EA8
:10006000EA22EF500D0802E0000E01D0010E086EEA
:10007000000E0101E76E0019E8AE02D0003503D092
:10008000E750D880005502E3000E01D0010E08149D
:1000900003E0010E016F12D00D0E0101D65D02E0EA
:1000A000000E01D0010E086E0101005102E0000EA9
:1000B00001D0010E081401E001D0002B9E9AE552F8
:0E00C000E5CFEAFFE5CFE9FFE5CFDAFF11005B
:0200CE0001002F
:0C00D000A406000000010000CC000000AD
:0400DC00190EAF6EDC
:1000E000AC84B896948CAB8EAC98B898AC8AAD6A58
:1000F0001200190EAF6EAC84B896948EAB8EAC988D
:10010000D08E9D8A9F8AF28EAB881200D9CFE6FFEF
:10011000E1CFD9FF9EA8FED7FD0EDBCFE9FFFE0E93
:10012000DBCFEAFFEF50AD6EFD0EDBCFE9FFDB2A40
:10013000FE0EDBCFEAFF01E3DB2AEF50EBE1E552F5
:10014000E7CFD9FF1200D9CFE6FFE1CFD9FF9468FE
:10015000110EB96EFE0EDB50CB6E0C0EBD6E0F0E87
:10016000BA6EE552E7CFD9FF1200D9CFE6FFE1CF53
:10017000D9FF020EE126FD0EDBCF00F0FE0EDBCF35
:1001800001F0060ED89000360136E804FBE100C00D
:10019000DEFF01C0DDFF010EDB50BE6EDF50E84028
:1001A000E8403F0B300B006ECF0EBD140010BD6E4B
:1001B000020EE15C02E2E16AE552E16EE552E7CF50
:1001C000D9FF1200D9CFE6FFE1CFD9FF020EE12619
:1001D000FD0EDBCF00F0FE0EDBCF01F0060ED89057
:1001E00000360136E804FBE100C0DEFF01C0DDFFA0
:1001F000010EDB50BB6EDF50E840E8403F0B300B98
:10020000006ECF0EBA140010BA6E020EE15C02E26C
:10021000E16AE552E16EE552E7CFD9FF12009E9206
:10022000020ECA6ECA841200D9CFE6FFE1CFD9FF11
:10023000020E0101005D1CE1010EE76EFD0EDBCF39
:10024000E9FFFE0EDBCFEAFFE750E926000EEA22C7
:10025000EF50D00F006EFD0EDBCFE9FFFE0EDBCFBF
:10026000EAFFEF50D00F0A0DF35000242ED02DD00E
:10027000020EE76EFD0EDBCFE9FFFE0EDBCFEAFFDD
:10028000E750E926000EEA22EF50D00F016E010E72
:10029000E76EFD0EDBCFE9FFFE0EDBCFEAFFE75096
:1002A000E926000EEA22EF50D00F0A0DF3CF00F03E
:1002B000FD0EDBCFE9FFFE0EDBCFEAFFEF50D00FE4
:1002C000640DF3500024012400D0E552E7CFD9FF9C
:1002D0001200D9CFE6FFE1CFD9FF050EE1260D0EC2
:1002E000DF6EFE0EDB50E76E010EE7CFDBFF3E0E4A
:1002F000F36E020EF3CFDBFF3E0EF36E030EF3CF71
:10030000DBFF040EDB6AD9CFE6FFDACFE6FFFEDEC5
:10031000E552E5520101015101E1FCD7030EE76E00
:100320000019E8AE02D0003503D0E750D880005560
:1003300002E3000E01D0010E006E020EE76E0019FE
:10034000E8AE02D0E73402D0E750005D02E3000ED1
:1003500001D0010E00100CE0630EE66E010EE66E99
:10036000D5DEE552E5520101006B016BCCD7B7D069
:100370000101D751390802E3000E01D0010E036ECE
:10038000300ED75D02E3000E01D0010E026ED65191
:10039000390802E3000E01D0010E016E360ED65D63
:1003A00002E3000E01D0010E011002100310006ED6
:1003B000020E0101005D02E0000E01D0010E0014EA
:1003C0000CE0630EE66E010EE66EA0DEE552E5522D
:1003D0000101006B016B97D782D00101D851390818
:1003E00002E3000E01D0010E056E300ED85D02E36F
:1003F000000E01D0010E046ED751320802E3000E48
:1004000001D0010E036E300ED75D02E3000E01D065
:10041000010E026ED651310802E3000E01D0010E2A
:10042000016E300ED65D02E3000E01D0010E011008
:100430000210031004100510006E030E0101005D90
:1004400002E0000E01D0010E00140CE0630EE66E17
:10045000010EE66E5BDEE552E5520101006B016BB9
:1004600052D73DD0D60EE66E010EE66EDDDEE552C9
:10047000E552E76E040EE7CFDBFF3F0EF36E040E8E
:10048000DBCFF4FFF350F45C02E3000E01D0010E69
:10049000006E040EDB507D0802E3000E01D0010E59
:1004A00000100EE0040EDB6A630EE66E010EE66ECF
:1004B0002DDEE552E5520101006B016B24D70FD010
:1004C0000101006B016B040EDB50006E016A00C07D
:1004D000F3FF01C0F4FF050EE15C04E201D013D785
:1004E000E16AE552E16EE552E7CFD9FF1200D9CFBC
:1004F000E6FFE1CFD9FF040EE126F0DDFADDF90ECB
:10050000E66E21DEE5525E0EE66EE66A2EDEE5520E
:10051000E5525E0EE66EE66A55DEE552E5527FDE96
:100520009EA2FED7F90E946E790EE66E010EE66E6F
:10053000EDDDE552E5520D0EAD6E020EE66E010EDA
:10054000E66EE4DDE552E552780EE66EC2DEE55277
:10055000F3CFDEFFF4CFDDFF790EE66EBADEE552B3
:10056000020EF3CFDBFF030EF4CFDBFFDECFE6FF9F
:10057000DDCFE6FFFADDE552E552020EDBCFE6FF06
:10058000030EDBCFE6FF1EDEE552E5523D0EE66EC2
:10059000010EE66EBBDDE552E5520D0EAD6E9EA876
:1005A000FED70D0EAD6E510EE66E010EE66EAEDD9F
:1005B000E552E552C9D7040EE15C02E2E16AE55278
:0A05C000E16EE552E7CFD9FF12000B
:0605CA00CE0EF66E000EDD
:1005D000F76E000EF86E01010900F550D16F0900A9
:1005E000F550D26F03E1D16701D03DD00900F5503D
:1005F000CC6F0900F550CD6F0900F550CE6F0900A2
:100600000900F550E96E0900F550EA6E090009008D
:100610000900F550CF6F0900F550D06F09000900AF
:10062000F6CFD3F1F7CFD4F1F8CFD5F1CCC1F6FFA7
:10063000CDC1F7FFCEC1F8FF0101CF5302E1D05386
:1006400007E00900F550EE6ECF07F8E2D007F9D7C2
:10065000D3C1F6FFD4C1F7FFD5C1F8FF0101D1071F
:08066000000ED25BBFD71200AF
:08066800600EF36E00EE00F0DD
:100670000F0E01D81200EA6002D0EE6AFCD7F350E8
:08068000E9601200EE6AFCD7EC
:080688001EEE00F02EEE00F062
:10069000F86A079CE5EC02F003EC00F077EC02F05E
:0406A000FBD7120072
:0C06A400000053595354454D2049532089
:1006B00052454144592120506C656173652067653E
:1006C000742076616C75657320666F7220636F6E3F
:1006D00074726F6C6C696E6720736572766F7321CC
:1006E00000536572766F73206861766520726F744F
:1006F00061746564005374617274206E6577207054
:10070000726F63657373004572726F722120476563
:1007100074206261636B2076616C75650054686952
:10072000732070726F6772616D20697320777269D0
:100730007474656E206279204E677579656E2054F9
:1007400069656E20446174202D204B53544E202D3A
:100750002044545654202D204B35342E20486176A9
:100760006520796F7520656E6A6F79206974210044
:020000040030CA
:0100010008F6
:010003001EDE
:010006008178
:00000001FF
