:020000040000FA
:06000000BFEF00F012004A
:0A00060001009C0100000A0F000039
:040010000A000000E2
:0C001400D9CFE6FFE1CFD9FFFE0EDB5094
:10002000D56ED66AD76AF294E552E7CFD9FF1200AF
:10003000D9CFE6FFE1CFD9FFE652956A010E8C6E6B
:10004000100EDF6EDFCFE6FFE5DFE552D58EF2A4BE
:1000500031D00F011351010A18E0010A01E029D043
:1000600012CFE9FFEA6AE9BEEA680A0EE9260F0E36
:10007000EA22EF508C6E1229126F080E125D04E115
:10008000010E136F060E126F14D012CFE9FFEA6A49
:10009000E9BEEA680A0EE9260F0EEA22EF508C6EDE
:1000A0001205126FFF0E125D03E1136B010E126F4A
:1000B00000D0F294CCD7E552E552E7CFD9FF120039
:1000C000060EF66E000EF76E000EF86E0F010900B8
:1000D000F550056F0900F550066F03E1056701D083
:1000E0003DD00900F550006F0900F550016F09007F
:1000F000F550026F09000900F550E96E0900F5504E
:10010000EA6E090009000900F550036F0900F55077
:10011000046F09000900F6CF07FFF7CF08FFF8CFFB
:1001200009FF00CFF6FF01CFF7FF02CFF8FF0F0165
:10013000035302E1045307E00900F550EE6E030794
:10014000F8E20407F9D707CFF6FF08CFF7FF09CF8A
:0E015000F8FF0F010507000E065BBFD7120077
:02015E00600E31
:10016000F36E00EE00F00F0E01D81200EA6002D02C
:0E017000EE6AFCD7F350E9601200EE6AFCD78D
:02017E001EEE73
:1001800000F02EEE00F0F86A019C60EC00F0CDEC7F
:0A01900000F018EC00F0FBD712009D
:02019A00120051
:04019C000102040850
:0601A00010204080010068
:020000040030CA
:0100010008F6
:0100020007F6
:010003001EDE
:010005008B6F
:010006008178
:010008000FE8
:01000900C036
:01000A000FE6
:01000B00E014
:01000C000FE4
:01000D0040B2
:00000001FF
